:020000040800F2
:100000000050002021020008270200082B020008EF
:100010009D020008A1020008E9020008000000009B
:100020000000000000000000000000003103000894
:1000300035030008000000003903000841100008E3
:100040004D0300084D0300084D0300084D03000850
:100050004D0300084D03000815080008310800088A
:100060004D0300084D0800084D0300084D0300082B
:100070004D0300084D0300084D0300084D03000820
:100080004D0300084D0300084D0300084D03000810
:100090004D0300084D0300084D0300084D03000800
:1000A0004D0300084D0300084D03000869160008C1
:1000B0004D03000831160008651600084D030008BE
:1000C0004D0300084D0300084D0300084D030008D0
:1000D0004D030008290E00084D0300084D030008D9
:1000E0004D0300084D0300084D0300080000000008
:1000F0000000000000000000000000000000000000
:1001000000000000000000005FF808F100B583B0B7
:1001100000F0AAF9304B314A1360314A1360314B79
:10012000314A32498B4204D21168196004330432D7
:10013000F7E72A4B1A682E4B9A4200D0FEE7284B6D
:100140001A682C4B9A42F9D1234B2B4A13602B4A45
:1001500013602B4B02E000221A600433294A9342B9
:10016000F9D3254B1B6813B9244B1B6803B1FEE779
:1001700000F086F9694601A800F022F9224C234BD1
:10018000E41AA4100025AC4214DC214C214BE41AE3
:10019000A4100025AC4213DC0099019801F00AFB81
:1001A00005461D4C1D4BE41AA410002C0EDC2846FD
:1001B00000F0E2F8154B53F8253098470135E2E797
:1001C000144B53F8253098470135E3E7013C134BB6
:1001D00053F824309847E8E7BABADECA0000002096
:1001E0008800002000000020F03700088C0000206C
:1001F00078563412325476988C0000204007002044
:100200008C000020440700207803000878030008D1
:1002100078030008780300087803000878030008D2
:1002200008B5FFF773FF00BEFEE71EF0040F0CBF1A
:10023000EFF30880EFF309807146414A10472DE93A
:10024000F04182B004468846124B5E6B9F6B9D6AFC
:100250001B6B13F0020F03D00E4BDB6A002B0CDB81
:100260000D4800F0B5F8CDF800803B4632462946EF
:10027000204600F009F900BEFEE74BF6AB6100F046
:100280007DF90028ECD0034B4FF00042DA6202B057
:10029000BDE8F08100ED00E03034000800BEFEE76C
:1002A0001EF0040F0CBFEFF30880EFF309807146D6
:1002B000244A10472DE9F04182B004468846084B95
:1002C0005E6B9F6B9D6A074800F082F8CDF8008056
:1002D0003B4632462946204600F0D6F800BEFEE7EF
:1002E00000ED00E0403400081EF0040F0CBFEFF3F7
:1002F0000880EFF309807146134A10472DE9F04159
:1003000082B004468846084B5E6B9F6B9D6A074827
:1003100000F05EF8CDF800803B4632462946204684
:1003200000F0B2F800BEFEE700ED00E04C3400083B
:1003300000BEFEE700BEFEE700BEFEE7704700001D
:100340003F020008B5020008FD02000800BEFEE7FB
:10035000F0370008000000208C000020F037000873
:1003600000000000000000008C0000204407002076
:08037000000000000000000085
:10037800FEE7000008B503460C4A12685AB10B4A5A
:100388001068033323F003030344094A934206D851
:10039800064A136008BD054A06491160EFE702F0F6
:1003A80085FB0C2303604FF0FF30F3E7900000203B
:1003B800004C00204407002001230360014B0B6020
:1003C800704700BF040000200FB400B583B004AB31
:1003D80053F8042B01938021064802F099FB00286A
:1003E80003DD0146034800F037F803B05DF804EB7D
:1003F80004B07047980000202DE9F04385B004460A
:100408000F4643560BB10E461EE0042528462146EA
:10041800ABBE0446384605B0BDE8F08314F9011BAD
:1004280004AA1A4402F8101C0133AB42F6D304AAFA
:100438001344002203F8102C4FF00408E946404604
:100448004946ABBE8046761B002EE3D03546102EBB
:1004580028BF10250023E8E708B5FFF7CDFF08BD42
:1004680008B500F0FDF8024A024B9A6008BD00BFCB
:100478000000000800ED00E008B500F019F908BD1B
:10048800F8B504460D4617461E462748FFF79CFF59
:1004980021682648FFF798FF61682548FFF794FF11
:1004A800A1682448FFF790FFE1682348FFF78CFF15
:1004B80021692248FFF788FF61692148FFF784FF17
:1004C800A1692048FFF780FFE1691F48FFF77CFF1B
:1004D8001E48FFF779FF29461D48FFF775FF1D4C99
:1004E800E16A1D48FFF770FF216B1C48FFF76CFF9E
:1004F800E16B1B48FFF768FF15F0800F0AD115F470
:10050800004F0CD11748FFF75FFF06991648FFF711
:100518005BFFF8BD39461548FFF756FFEFE7314650
:100528001348FFF751FFEDE71433000824330008A0
:100538003433000844330008543300086433000897
:10054800743300088433000894330008A433000887
:10055800B033000800ED00E0C0330008D0330008D5
:10056800E03300081034000818340008F03300089D
:100578000034000883691A888A4201D00020704735
:100588000268033A012A03D80233836101207047C5
:100598000020704782B00023019300932C4A13680F
:1005A80043F4803313602A4B1B6803F40033009331
:1005B800019B01330193009B1BB9019BB3F5A06F0D
:1005C800F1D1234B1B6813F4003F06D0012300939D
:1005D800009B012B04D002B0704700230093F7E77B
:1005E8001C4B1A6842F010021A601A6822F00302C3
:1005F8001A601A6842F002021A60A3F580535A681A
:100608005A605A685A605A6842F480625A605A6856
:1006180022F47C125A605A6842F4E8125A601A6846
:1006280042F080721A600A4B1B6813F0007FFAD000
:10063800074B5A6822F003025A605A6842F00202D5
:100648005A60034B5B6803F00C03082BF9D1C2E72F
:10065800001002400020024008B5FFF79BFF08BDCC
:1006680008B5104B1A6842F001021A6059680E4A20
:100678000A405A601A6822F0847222F480321A60A2
:100688001A6822F480221A605A6822F4FE025A601C
:100698004FF41F029A60FFF7DFFF044B4FF0006230
:1006A8009A6008BD001002400000FFF800ED00E06D
:1006B8001F4B5B6803F00C03042B15D0082B17D0D5
:1006C8001BB11C4B1C4A1A6002E01A4B1A4A1A60EA
:1006D800174B5B68C3F30313184AD35CDAB21549A6
:1006E8000B68D3400B607047124B134A1A60EFE750
:1006F8000F4A53685268C3F38343023312F4803FAE
:100708000AD00B4A526812F4003F0BD00C4A02FB85
:1007180003F3084A1360DBE7094A02FB03F3054ABF
:100728001360D5E7044A02FB03F3024A1360CFE7DC
:10073800001002401C00002000127A000C0000206B
:1007480000093D0010B501220C21002000F006F937
:10075800064C204600F056FC00220C21104600F002
:10076800FDF8204600F04EFC10BD00BFE0930400E9
:10077800044BDA6842F00802DA601A6822F00802CC
:100788001A60704700040140032915D005291FD0BD
:10079800012905D0144A136843F008031360704711
:1007A800114BD968012202FA00F00143D9609A6816
:1007B80022EA00009860EDE70B4B9968012202FAE3
:1007C80000F001439960DA6822EA0000D860E1E7A6
:1007D800054AD168012303FA00F00143D160936808
:1007E80018439060D6E700BF0004014003490B6836
:1007F800012202FA00F003430B6070470004014035
:10080800014B1860704700BF2001002008B5044B59
:100818001B689847034A536943F00103536108BDB5
:10082800180100200004014008B5044B1B689847D4
:10083800034A536943F00203536108BD1C010020B9
:100848000004014008B5044B1B689847034A5369E4
:1008580043F00803536108BD200100200004014053
:1008680010B4012827D018B1022847D010BC70470F
:10087800072912D90F29F9D8A1F10804E4B2314B9C
:100888001968A4000F20A04021EA00011960186827
:1008980002FA04F101431960E8E72B4B1868890054
:1008A8000F248C4020EA04001860186802FA01F14D
:1008B80001431960DAE7072912D90F29D6D8A1F11F
:1008C8000800C0B2214B196880000F24844021EA37
:1008D800040119601C6802FA00F121431960C5E798
:1008E8001B4B186889000F248C4020EA040018600C
:1008F800186802FA01F101431960B7E7072912D90C
:100908000F29B3D8A1F10803DBB2124801689B0094
:100918000F249C4021EA04010160046802FA03F1F3
:1009280021430160A2E70C4B186889000F248C4012
:1009380020EA04001860186802FA01F101431960FE
:1009480094E700BF0408014000080140040C01407E
:10095800000C01400410014000100140012812D091
:1009680010B102281ED070473AB1012A28D10123BC
:1009780003FA01F1134B19607047012303FA01F1DF
:10098800114B196070473AB1012A19D1012303FAB2
:1009980001F10E4B19607047012303FA01F10C4B6A
:1009A800196070473AB1012A0AD1012303FA01F10B
:1009B800084B19607047012303FA01F1064B1960CF
:1009C800704700BF1008014014080140100C014096
:1009D800140C0140101001401410014001280AD0E5
:1009E80018B102280DD000207047094B1868C8407C
:1009F80000F001007047074B1868C84000F001007C
:100A08007047054B1868C84000F00100704700BFE8
:100A180008080140080C0140081001400023064A5C
:100A2800138004E0054A0021D15401339BB240F2FF
:100A3800DB529342F6D97047240100204C01002074
:100A4800002301E001339BB240F2DB5293420CD801
:100A5800074AD25CD2B24F2AF4D15A1C04498A5CA4
:100A6800D2B24B2AEED1012070470020704700BF58
:100A78004C01002038B5074C2588ADB200F0BEF90E
:100A8800054B5855238801339BB2238000F0BCF9ED
:100A980038BD00BF240100204C01002008B51448CF
:100AA80000F0B8F907E0FFF7B9FF124800F09AF92B
:100AB800114800F0A7FAFFF7C3FF0028F3D0FFF7AB
:100AC800ADFF0DE0FFF7AAFF0C4800F08BF90C48CA
:100AD80000F088F90B4800F085F9074800F092FA11
:100AE800FFF7AEFF0028EDD0FFF798FF08BD00BF65
:100AF8007D0A0008B834000840420F00C0340008DE
:100B0800D0340008DC34000838B505460C46FFF739
:100B180085FF13E0FFF782FF0B4800F063F92846D2
:100B280000F060F9094800F05DF9204600F05AF934
:100B3800074800F057F9074800F064FAFFF780FF0C
:100B48000028E7D038BD00BFA8340008A03400084A
:100B5800B434000840420F0038B505460C46FFF78C
:100B68005DFF13E0FFF75AFF0B4800F03BF92846FA
:100B780000F038F9094800F035F9204600F032F95C
:100B8800074800F02FF9074800F03CFAFFF758FF34
:100B98000028E7D038BD00BF90340008A43400080E
:100BA800D834000840420F0038B505460C46FFF718
:100BB80035FF13E0FFF732FF0B4800F013F9284622
:100BC80000F010F9094800F00DF9204600F00AF984
:100BD800074800F007F9074800F014FAFFF730FF5C
:100BE8000028E7D038BD00BF90340008A4340008BE
:100BF800D834000840420F0038B50546002412E0FA
:100C0800FFF70CFF094800F0EDF8284600F0EAF875
:100C1800074800F0E7F8074800F0F4F9FFF710FF7D
:100C28000446FFF7FBFE002CEAD038BD84340008E8
:100C3800D834000840420F0010B5044600200DE0EB
:100C4800084800F0CFF8204600F0CCF8064800F03D
:100C5800C9F8064800F0D6F9FFF7F2FE0028EFD0F1
:100C680010BD00BFEC3400081C35000840420F00DE
:100C780038B504460D46FFF7D1FE0BE0134800F0E7
:100C8800B1F8284600F0AEF8114800F0ABF811486A
:100C980000F0B8F9FFF7D4FE0028EFD0FFF7BEFE4A
:100CA8000BE00D4800F09EF8204600F09BF808483D
:100CB80000F098F8074800F0A5F9FFF7C1FE0028F2
:100CC800EFD0064B93F8250038BD00BF84340008E8
:100CD800D834000840420F005C3400084C01002062
:100CE8002DE9F04387B0224C94E80F0006AD05E9E2
:100CF8000F002369019363690093002615E006AA93
:100D080002EB8409C84418F8104C04E02946012075
:100D1800FFF764FE0346002BF8D024E00122394691
:100D28001046FFF71BFE0136F6B2032E1AD8B0465E
:100D380006AB334413F8147C002239460120FFF730
:100D48000DFE0024032CE9D806AB234413F8185CE5
:100D580029460120FFF742FE03460028CFD0013480
:100D6800E4B2EFE7FF24204607B0BDE8F08300BFF8
:100D780028350008124B00221A60DA6822F48052E3
:100D8800DA60DA6822F48062DA60DA6842F0200217
:100D9800DA60DA6842F00802DA60DA6842F00402DF
:100DA800DA601A6922F480521A611A6922F4005230
:100DB8001A6145229A60DA6842F40052DA60704794
:100DC80000380140064B5860054B1B6813F0400F74
:100DD800FAD0034A136823F040031360704700BF3A
:100DE8000038014038B50546002403E0FFF7EAFF64
:100DF8000134E4B2285D0028F8D138BD014B5868A9
:100E0800C0B2704700380140014B00221A60704799
:100E180000380140014B1860704700BF3C070020B4
:100E280008B5034B00221A60024B1B68984708BD9F
:100E3800003801403C070020014B024A1A60704705
:100E48000CED00E00005FA051F280AD93B280FD849
:100E58002038C0B2012303FA00F0064B18600020C6
:100E68007047012303FA00F0034B18600020704715
:100E78000120704704E100E000E100E03B280BDCC2
:100E880042EA8102D2B2002806DB00F1604000F598
:100E980064401201D2B20270704700000E4B1A680B
:100EA80042F400221A601A6822F480221A601A6832
:100EB80042F480321A6004331A6842F001021A6060
:100EC8001A6822F002021A601A6822F47F5222F08D
:100ED80030021A60704700BF001002401F291CD85A
:100EE80001280BD010B1022810D070470B480368B6
:100EF800012202FA01F119430160704708480368AA
:100F0800012202FA01F1194301607047054803689C
:100F1800012202FA01F119430160704714100240DE
:100F28001C1002401810024010B50C4600F0FEFFDD
:100F38000022074B01F08EF90022064B00F0AAFEB2
:100F480001F070FA22460146034800F079FA10BD14
:100F580000003240000004400AD7A33C184B1A682E
:100F680022F400621A601A6842F400721A601A6861
:100F780042F480721A601A6822F080021A601A68B5
:100F880022F020021A601A6822F010021A601A6809
:100F980022F008021A601A6842F004021A601A68FD
:100FA80042F002021A601A6842F001021A601A68D6
:100FB80042F040021A6040F247321A60704700BFA0
:100FC8000030014038B505460C460022114610464F
:100FD800FFF7C4FC074BDD60064B9B6813F0800FDE
:100FE800FAD1044BDB682370012200210846FFF781
:100FF800B5FC38BD00300140014B00221A60704733
:1010080010E000E0B0F1807F12D20A4B58601A68F5
:1010180042F001021A60074B1B6813F4803FFAD0B4
:10102800044B1A6842F001021A6000225A609A6062
:10103800704700BF10E000E008B50B4B1B78022B8F
:1010480005D00A4B1B689847094B1B6808BD084B1D
:101058001A6822F002021A601A6842F001021A6045
:1010680000225A609A60ECE72C0100202801002039
:1010780010E000E010B582B00446012202210020F1
:10108800FFF76CFC0DF107012046FFF79BFF02B04C
:1010980010BD10B50446000AFFF7ECFFE0B2FFF7F9
:1010A800E9FF10BD10B582B00446002202211046A7
:1010B800FFF754FC0DF107012046FFF783FF02B04C
:1010C80010BDF8B507460E4615461C462A20FFF700
:1010D800E9FF0020FFF7CEFF3846FFF7CBFF0020DF
:1010E800FFF7C8FF3046FFF7C5FF2B20FFF7DAFFF1
:1010F8000020FFF7BFFF2846FFF7BCFF0020FFF7DF
:10110800B9FF2046FFF7B6FFF8BD38B51546441CB1
:101118004B1CDBB20A46E1B2FFF7D3FF2C20FFF7E6
:10112800C1FF002404E02846FFF7B3FF0134E4B20E
:10113800042CF8D938BD000008B50122114600205A
:10114800FFF70CFC6420FFF75DFF00220121104629
:10115800FFF704FC0120FFF755FF0122114600208C
:10116800FFF7FCFB6420FFF74DFF0022012110462A
:10117800FFF7F4FB6420FFF745FF0122114600202A
:10118800FFF7ECFB0948FFF73DFF1120FFF78AFF47
:101198000748FFF737FF3A20FFF784FF0520FFF7DE
:1011A80069FF2920FFF77EFF08BD00BFC0D40100FA
:1011B800F049020038B505462A20FFF773FF0020E2
:1011C800FFF758FF0020FFF755FF0020FFF752FFF9
:1011D8007F20FFF74FFF2B20FFF764FF0020FFF76A
:1011E80049FF0020FFF746FF0020FFF743FF9F203D
:1011F800FFF740FF2C20FFF755FF002407E0280ADF
:10120800FFF738FFE8B2FFF735FF0134A4B2B4F5B1
:10121800A04FF4D338BD00002DE9F84F07468B46A0
:10122800924699469DF82880002621E01FFA89F207
:1012380029463846FFF769FF0235EDB20134E4B2BA
:10124800062C11D8A8F1200303EB83030C4A13449E
:101258009B5D234113F0010FE8D01FFA8AF229465B
:101268003846FFF752FFE7E70237FFB20136F6B21A
:10127800042E02D85D460024E2E7BDE8F88F00BFDF
:10128800403500082DE9F04383B00546894690466D
:101298001F460A9E00240AE000933B464246494600
:1012A8002846FFF7B9FF0134E4B20C35EDB2335DDF
:1012B800002BF1D103B0BDE8F08300002DE9F04F19
:1012C80085B00546894692469B460E9E4FF000081B
:1012D8004746444610E004EB84046300264CA4FB14
:1012E8000624E408214604EB84046200B41A1C4472
:1012F8000E4601374FF00108002EECD115E01E4BC9
:10130800A3FB0423DB08039303EB83035A00A31A0C
:101318003033DBB200935B46524649462846FFF716
:101328007BFF0C35EDB2039C0136002CE7D1B8F1F8
:10133800000F0CD01CE0302300935B465246494610
:101348002846FFF769FF0C35EDB208F10108BB1B11
:101358004345F0D205B0BDE8F08F302300935B46DB
:10136800524649462846FFF757FF0C35EDB201347F
:10137800BB1BA342F1D8EDE7CDCCCCCC4FF08043DA
:1013880003229A6240000138D86200225A62012280
:101398001A604FF080431B6913F0010FF9D04FF02A
:1013A80080431A6922F001021A6100221A6070470C
:1013B800114B41F287329A624FF6FF72DA620022CD
:1013C8005A621A6A22F002021A621A6A42F020026B
:1013D8001A6240F201229A6154229A601A6A42F013
:1013E80011021A621A6842F001021A60DA6842F0C1
:1013F8000602DA60704700BF002C014000B583B0D8
:10140800002300930B4B1B787BB10B4B5B889BB283
:10141800ADF80630BDF8060001F00EF9074901F0F5
:101428005FF90090034B00221A70009803B05DF832
:1014380004FB00BF34010020300100200AD7233A02
:1014480070B505460E46032A3BD8DFE802F0023B9A
:1014580074AD724C4F23A362714901F041F94FF00A
:101468007E5101F033F801F001FBE0626D4930462E
:1014780001F0EAF9294601F033F9694901F030F938
:1014880001F0F4FA6063236823F070032360A36912
:1014980023F00303A361236A23F002032362A369F1
:1014A80023F07003A361A36943F06003A361236A77
:1014B80043F00103236200236362236843F00103BE
:1014C800236070BD554C4F23A362554901F008F9BC
:1014D8004FF07E5100F0FAFF01F0C8FAE06251497E
:1014E800304601F0B1F9294601F0FAF84C4901F00B
:1014F800F7F801F0BBFAA063236823F070032360B8
:10150800A36923F44073A361236A23F020032362B1
:10151800A36923F4E043A361A36943F4C043A3612F
:10152800236A43F01003236200236362236843F0B5
:1015380001032360C5E7394C4F23A362384901F002
:10154800CFF84FF07E5100F0C1FF01F08FFAE06252
:101558003449304601F078F9294601F0C1F830499C
:1015680001F0BEF801F082FAE063236823F070030B
:101578002360E36923F00303E361236A23F4007320
:101588002362E36923F07003E361E36943F06003D6
:10159800E361236A43F48073236200236362236850
:1015A80043F0010323608CE71C4C4F23A3621C49C2
:1015B80001F096F84FF07E5100F088FF01F056FADE
:1015C800E0621849304601F03FF9294601F088F8F1
:1015D800134901F085F801F049FA2064236823F0E3
:1015E80070032360E36923F44073E361236A23F4FF
:1015F80000532362E36923F4E043E361E36943F4BE
:10160800C043E361236A43F4805323620023636287
:10161800236843F00103236053E700BF000800403C
:101628000050C3470000C84208B5094B1B7833B9BE
:10163800084BDA6822F00102DA6000221A60064BD1
:101648001B689847034A136923F00103136108BD17
:101658003C010020000400403801002070470000D1
:10166800114B1B784BB9114B1B78DBB2012B05D002
:101678000E4B1B78DBB2022B0BD070470C4B5B6B0D
:101688009BB20C4A1380094A13780133DBB21370FA
:101698007047074B9B6B9BB2064A53800123034A52
:1016A8001370014A1370E8E734010020200000207D
:1016B800002C01403001002008B5FFF779FE1B20FF
:1016C800FFF7C2FB1D20FFF7BFFB1C20FFF7BCFB89
:1016D800002201211B20FFF7D1FB012202211D203E
:1016E800FFF7CCFB002202211C20FFF7C7FB08BD37
:1016F80008B501220B210020FFF730F90A20FFF777
:101708003DFE00220B211046FFF728F908BD000016
:1017180000B583B0FFF772FE01900198074900F009
:10172800DFFF4FF07C5100F0DBFF054900F0D8FFE8
:101738000090009803B05DF804FB00BF0000AA43C6
:101748000000C84208B5012206210020FFF706F96B
:1017580008BD000030B583B0002507E0FEF7F2FFB2
:101768000134E4B2092CF9D90135EDB2042D16D8AB
:10177800FFF7BEFFFFF7CCFF01904CF25030FFF7A8
:1017880041FC0198074901F067F90028ECD001985D
:10179800054901F043F90028E6D00024E2E703B048
:1017A80030BD00BF0000A0400000F0412DE9F0412D
:1017B80090B0FFF773FB02210846FFF78FFB032168
:1017C8000220FFF78BFB0C210220FFF787FB00218B
:1017D8000220FFF783FB0E210220FFF77FFB0B217E
:1017E8000220FFF77BFB00210120FFF777FB012197
:1017F8000846FFF773FB02210120FFF76FFB022267
:1018080001210020FFF72CF8022211460020FFF7E3
:1018180027F8092207210020FFF722F809220521CD
:101828000020FFF71DF802220C210020FFF718F80E
:10183800022200210120FFF713F8022201210846A5
:10184800FFF70EF8022205210120FFF709F802220E
:101858000B210120FFF704F808220C210120FEF7D4
:10186800FFFF08220D210120FEF7FAFF08220E21B2
:101878000120FEF7F5FF08220A210120FEF7F0FFFC
:10188800012200211046FFF769F80122114610468F
:10189800FFF764F8012205211046FFF75FF80122DF
:1018A8000B211046FFF75AF801220C211046FFF7CA
:1018B80055F801220D211046FFF750F801220E219C
:1018C8001046FFF74BF801220A211046FFF746F8A9
:1018D800042208210020FEF7C3FF02220B2100206A
:1018E800FEF7BEFF0B2206210120FEF7B9FF0B22EF
:1018F80007210120FEF7B4FF0B2208210120FEF783
:10190800AFFF0B2209210120FEF7AAFF0A220921B5
:101918000020FEF7A5FF04220A210020FEF7A0FF01
:10192800042211460020FEF79BFF08220321002015
:10193800FEF796FF022206210020FEF791FF012202
:1019480003210020FFF70AF8BC48FEF759FFFEF70D
:101958000FFF01210320FEF717FF0320FEF746FFC4
:10196800FFF74AFBFFF7FAFAFFF7E6FBFFF7A4FEDB
:10197800FFF762FA2520FFF767FA1E20FFF764FADF
:10198800002203211E20FFF779FA0920FFF75CFAED
:10199800FFF7F0F9FFF782F8A949AA48FFF7B4F86A
:1019A800A94B93E8030010AB03E90300A74A0BAB6C
:1019B80007CA03C31A70A64A08AB07CA03C31A802A
:1019C800A44B93E803000690ADF81C10090C8DF8A1
:1019D8001E100020FFF7EEFB002510E10020FFF7A6
:1019E800E9FB0EAB009300234FF6FF721946142053
:1019F800FFF748FC0BAB009300234FF6FF7214214E
:101A08001846FFF73FFC08AB009300234FF6FF7220
:101A180028211846FFF736FC06AB009300234FF643
:101A2800FF723C211846FFF72DFC002768E0FFF7FE
:101A380057F90446FF2CFAD00026354604E0FFF794
:101A48004FF90446FF2CFAD02A2C20D01436F6B2CF
:101A5800009400234FF6FF7250213046FFF72EFC0A
:101A68007D48FFF7CFFA2A23009300234FF6FF7231
:101A780050213046FFF7D0FB05EB85056B009BB284
:101A8800A4B223449DB2FFF72BF90446DAE740F2EB
:101A9800F2339D423AD0032F59D00020FFF78AFB3A
:101AA8006E4B93E803000390ADF81010090C8DF805
:101AB800121003AB009300234FF2F00219461420D2
:101AC800FFF7E0FB0BAB009300234FF6FF721421E6
:101AD8001846FFF7D7FB08AB009300234FF6FF72B9
:101AE80028211846FFF7CEFB06AB009300234FF6DC
:101AF800FF723C211846FFF7C5FB0137FFB20025EE
:101B0800032F48D8FFF7ECF8044693E7544A03AB91
:101B180007CA03C31A800020FFF74CFB0EAB0093E3
:101B280000234FF47F4219461420FFF7ABFB03ABA9
:101B3800009300234FF47F4214211846FFF7A2FBBD
:101B4800002206211046FEF709FF454625E000253C
:101B58000020FFF72FFB002206211046FEF7FEFEAD
:101B6800404B93E8030003908DF8101003AB0093EB
:101B780000234FF2F00228211846FFF783FB3A4969
:101B88003A48FFF711F83A48FFF736F83948FFF7AF
:101B980053F8002427E0012DDAD100215A20FFF75D
:101BA800C3F944F62060FFF72DFA3348FFF72AFA05
:101BB80004210020FEF712FF03E004210020FEF7B5
:101BC8000DFF0028F9D00021B420FFF7ADF944F645
:101BD8002060FFF717FA0020FFF7ECFA0DE0FEF798
:101BE800B1FD0134E4B2092CF9D90020FFF7E2FA7B
:101BF80003E000215A20FFF797F9FFF7ABFDFFF745
:101C0800A9FD06210020FEF7E9FE804601283FF4E1
:101C1800E5AEFFF79FFD14491848FEF79DFF1849E8
:101C28001848FFF725F83038C0B20128E1D000285D
:101C3800E3D10021B420FFF777F9DEE74D1700085C
:101C4800203700082C37000878370008803700084C
:101C58008C3700089837000820A10700A037000833
:101C6800A8370008B4370008383700083C370008A0
:101C7800503700085437000880841E005837000881
:101C8800683700086C37000881F0004102E000BFA7
:101C980083F0004330B54FEA41044FEA430594EA24
:101CA800050F08BF90EA020F1FBF54EA000C55EA5F
:101CB800020C7FEA645C7FEA655C00F0E2804FEA30
:101CC8005454D4EB5555B8BF6D420CDD2C4480EA12
:101CD800020281EA030382EA000083EA010180EA42
:101CE800020281EA0303362D88BF30BD11F0004F90
:101CF8004FEA01314FF4801C4CEA113102D04042C6
:101D080061EB410113F0004F4FEA03334CEA133300
:101D180002D0524263EB430394EA050F00F0A78018
:101D2800A4F10104D5F1200E0DDB02FA0EFC22FA13
:101D380005F2801841F1000103FA0EF2801843FA07
:101D480005F359410EE0A5F120050EF1200E012AF8
:101D580003FA0EFC28BF4CF0020C43FA05F3C01836
:101D680051EBE37101F0004507D54FF0000EDCF1AF
:101D7800000C7EEB00006EEB0101B1F5801F1BD358
:101D8800B1F5001F0CD349085FEA30004FEA3C0C5C
:101D980004F101044FEA445212F5800F80F09A8052
:101DA800BCF1004F08BF5FEA500C50F1000041EB56
:101DB800045141EA050130BD5FEA4C0C404141EB5A
:101DC800010111F4801FA4F10104E9D191F0000F81
:101DD80004BF01460020B1FA81F308BF2033A3F104
:101DE8000B03B3F120020CDA0C3208DD02F1140CFB
:101DF800C2F10C0201FA0CF021FA02F10CE002F136
:101E08001402D8BFC2F1200C01FA02F120FA0CFC2E
:101E1800DCBF41EA0C019040E41AA2BF01EB045177
:101E2800294330BD6FEA04041F3C1CDA0C340EDC75
:101E380004F11404C4F1200220FA04F001FA02F3B8
:101E480040EA030021FA04F345EA030130BDC4F176
:101E58000C04C4F1200220FA02F001FA04F340EA6B
:101E68000300294630BD21FA04F0294630BD94F01C
:101E7800000F83F4801306BF81F480110134013D03
:101E88004EE77FEA645C18BF7FEA655C29D094EA74
:101E9800050F08BF90EA020F05D054EA000C04BFF2
:101EA8001946104630BD91EA030F1EBF00210020DD
:101EB80030BD5FEA545C05D14000494128BF41F07C
:101EC800004130BD14F580043CBF01F5801130BDE0
:101ED80001F0004545F0FE4141F470014FF000006B
:101EE80030BD7FEA645C1ABF194610467FEA655C1C
:101EF8001CBF0B46024650EA013406BF52EA0335BE
:101F080091EA030F41F4002130BD00BF90F0000FAB
:101F180004BF0021704730B54FF4806404F13204E7
:101F28004FF000054FF0000150E700BF90F0000FA0
:101F380004BF0021704730B54FF4806404F13204C7
:101F480010F0004548BF40424FF000013EE700BF97
:101F580042004FEAE2014FEA31014FEA02701FBF27
:101F680012F07F4393F07F4F81F06051704732F059
:101F78007F4208BF704793F07F4F04BF41F40021B0
:101F8800704730B54FF4607401F0004521F000410E
:101F98001CE700BF50EA010208BF704730B54FF098
:101FA80000050AE050EA010208BF704730B511F099
:101FB800004502D5404261EB41014FF4806404F1D1
:101FC80032045FEA915C3FF4D8AE4FF003025FEA57
:101FD800DC0C18BF03325FEADC0C18BF033202EBDB
:101FE800DC02C2F1200300FA03FC20FA02F001FA35
:101FF80003FE40EA0E0021FA02F11444BDE600BFD8
:1020080070B54FF0FF0C4CF4E06C1CEA11541DBF86
:102018001CEA135594EA0C0F95EA0C0F00F0DEF851
:102028002C4481EA030621EA4C5123EA4C5350EA36
:10203800013518BF52EA033541F4801143F4801387
:1020480038D0A0FB02CE4FF00005E1FB02E506F018
:102058000042E0FB03E54FF00006E1FB03569CF06D
:10206800000F18BF4EF0010EA4F1FF04B6F5007F73
:1020780064F5407404D25FEA4E0E6D4146EB0606E5
:1020880042EAC62141EA55514FEAC52040EA5E506E
:102098004FEACE2EB4F1FD0C88BFBCF5E06F1ED818
:1020A800BEF1004F08BF5FEA500E50F1000041EB4F
:1020B800045170BD06F0004646EA010140EA0200FC
:1020C80081EA0301B4EB5C04C2BFD4EB0C0541EA1E
:1020D800045170BD41F480114FF0000E013C00F333
:1020E800AB8014F1360FDEBF002001F0004170BD57
:1020F800C4F10004203C35DA0C341BDC04F1140470
:10210800C4F1200500FA05F320FA04F001FA05F2FB
:1021180040EA020001F0004221F0004110EBD370C8
:1021280021FA04F642EB06015EEA430E08BF20EAF4
:10213800D37070BDC4F10C04C4F1200500FA04F397
:1021480020FA05F001FA04F240EA020001F0004129
:1021580010EBD37041F100015EEA430E08BF20EA9C
:10216800D37070BDC4F1200500FA05F24EEA020EE4
:1021780020FA04F301FA05F243EA020321FA04F013
:1021880001F0004121FA04F220EA020000EBD370CA
:102198005EEA430E08BF20EAD37070BD94F0000FCA
:1021A8000FD101F00046400041EB010111F4801FFE
:1021B80008BF013CF7D041EA060195F0000F18BFAF
:1021C800704703F00046520043EB030313F4801FEB
:1021D80008BF013DF7D043EA0603704794EA0C0FA5
:1021E8000CEA135518BF95EA0C0F0CD050EA4106BB
:1021F80018BF52EA4306D1D181EA030101F0004138
:102208004FF0000070BD50EA410606BF104619465F
:1022180052EA430619D094EA0C0F02D150EA01366B
:1022280013D195EA0C0F05D152EA03361CBF1046AC
:1022380019460AD181EA030101F0004141F0FE414B
:1022480041F470014FF0000070BD41F0FE4141F4CF
:10225800780170BD70B54FF0FF0C4CF4E06C1CEACF
:1022680011541DBF1CEA135594EA0C0F95EA0C0F84
:1022780000F0A7F8A4EB050481EA030E52EA03353F
:102288004FEA013100F088804FEA03334FF0805560
:1022980045EA131343EA12634FEA022245EA11158D
:1022A80045EA10654FEA00260EF000419D4208BF3E
:1022B800964244F1FD0404F5407402D25B084FEAEB
:1022C8003202B61A65EB03055B084FEA32024FF497
:1022D80080104FF4002CB6EB020E75EB030E22BFF4
:1022E800B61A754640EA0C005B084FEA3202B6EBB4
:1022F800020E75EB030E22BFB61A754640EA5C0063
:102308005B084FEA3202B6EB020E75EB030E22BFF2
:10231800B61A754640EA9C005B084FEA3202B6EBF3
:10232800020E75EB030E22BFB61A754640EADC00B2
:1023380055EA060E18D04FEA051545EA16754FEA14
:1023480006164FEAC30343EA52734FEAC2025FEA32
:102358001C1CC0D111F4801F0BD141EA00014FF0C1
:1023680000004FF0004CB6E711F4801F04BF014392
:102378000020B4F1FD0C88BFBCF5E06F3FF6AFAEAE
:10238800B5EB030C04BFB6EB020C5FEA500C50F13E
:10239800000041EB045170BD0EF0004E4EEA1131C1
:1023A80014EB5C04C2BFD4EB0C0541EA045170BDC8
:1023B80041F480114FF0000E013C90E645EA060E0C
:1023C8008DE60CEA135594EA0C0F08BF95EA0C0F3A
:1023D8003FF43BAF94EA0C0F0AD150EA01347FF482
:1023E80034AF95EA0C0F7FF425AF104619462CE759
:1023F80095EA0C0F06D152EA03353FF4FDAE1046BC
:10240800194622E750EA410618BF52EA43067FF40C
:10241800C5AE50EA41047FF40DAF52EA43057FF49C
:10242800EBAE12E74FEA4102B2F1E04324BFB3F545
:10243800001CDCF1FE5C0DD901F0004C4FEAC00233
:102448004CEA5070B2F1004F40EB830008BF20F017
:102458000100704711F0804F21D113F13872BCBFD1
:1024680001F00040704741F480114FEA5252C2F126
:102478001802C2F1200C10FA0CF320FA02F018BF6F
:1024880040F001004FEAC1234FEAD32303FA0CFCC2
:1024980040EA0C0023FA02F34FEA4303CCE77FEA51
:1024A800625307D150EA01331EBF4FF0FE4040F49B
:1024B8004000704701F0004040F0FE4040F400004A
:1024C800704700BF80F0004002E000BF81F000418B
:1024D80042001FBF5FEA410392EA030F7FEA226CC2
:1024E8007FEA236C6AD04FEA1262D2EB1363C1BF52
:1024F800D218414048404140B8BF5B42192B88BFC1
:10250800704710F0004F40F4000020F07F4018BFE3
:10251800404211F0004F41F4000121F07F4118BF03
:10252800494292EA030F3FD0A2F1010241FA03FCAB
:1025380010EB0C00C3F1200301FA03F100F0004393
:1025480002D5494260EB4000B0F5000F13D3B0F15B
:10255800807F06D340084FEA310102F10102FE2ACA
:1025680051D2B1F1004F40EBC25008BF20F001003A
:1025780040EA03007047490040EB000010F4000FE8
:10258800A2F10102EDD1B0FA80FCACF1080CB2EB7B
:102598000C0200FA0CF0AABF00EBC25052421843DA
:1025A800BCBFD0401843704792F0000F81F400017F
:1025B80006BF80F400000132013BB5E74FEA410352
:1025C8007FEA226C18BF7FEA236C21D092EA030FBE
:1025D80004D092F0000F08BF0846704790EA010F38
:1025E8001CBF0020704712F07F4F04D1400028BF65
:1025F80040F00040704712F100723CBF00F5000047
:10260800704700F0004343F0FE4040F4000070477C
:102618007FEA226216BF08467FEA23630146420228
:1026280006BF5FEA412390EA010F40F4800070473B
:102638004FF0000304E000BF10F0004348BF4042E1
:102648005FEA000C08BF704743F0964301464FF01D
:1026580000001CE050EA010208BF70474FF0000379
:102668000AE000BF50EA010208BF704711F00043BA
:1026780002D5404261EB41015FEA010C02BF84468A
:102688000146002043F0B64308BFA3F18053A3F5E9
:102698000003BCFA8CF2083AA3EBC25310DB01FA30
:1026A80002FC634400FA02FCC2F12002BCF1004FB4
:1026B80020FA02F243EB020008BF20F00100704745
:1026C80002F1200201FA02FCC2F1200250EA4C0099
:1026D80021FA02F243EB020008BF20EADC707047DF
:1026E8004FF0FF0C1CEAD0521EBF1CEAD15392EAED
:1026F8000C0F93EA0C0F6FD01A4480EA010C4002C9
:1027080018BF5FEA41211ED04FF0006343EA501022
:1027180043EA5111A0FB01310CF00040B1F5000F64
:102728003EBF490041EAD3715B0040EA010062F113
:102738007F02FD2A1DD8B3F1004F40EBC25008BFFD
:1027480020F00100704790F0000F0CF0004C08BF1B
:1027580049024CEA502040EA51207F3AC2BFD2F1E8
:10276800FF0340EAC250704740F400004FF00003F6
:10277800013A5DDC12F1190FDCBF00F00040704730
:10278800C2F10002410021FA02F1C2F1200200FA6E
:1027980002FC5FEA310040F1000053EA4C0308BF35
:1027A80020EADC70704792F0000F00F0004C02BF86
:1027B800400010F4000F013AF9D040EA0C0093F001
:1027C800000F01F0004C02BF490011F4000F013B5B
:1027D800F9D041EA0C018FE70CEAD15392EA0C0FC9
:1027E80018BF93EA0C0F0AD030F0004C18BF31F034
:1027F800004CD8D180EA010000F00040704790F00A
:10280800000F17BF90F0004F084691F0000F91F0AD
:10281800004F14D092EA0C0F01D142020FD193EA73
:102828000C0F03D14B0218BF084608D180EA0100FB
:1028380000F0004040F0FE4040F40000704740F0D7
:10284800FE4040F4400070474FF0FF0C1CEAD052A5
:102858001EBF1CEAD15392EA0C0F93EA0C0F69D001
:10286800A2EB030280EA010C49024FEA402037D06C
:102878004FF0805343EA111143EA10130CF0004063
:102888008B4238BF5B0042F17D024FF4000C8B4253
:1028980024BF5B1A40EA0C00B3EB510F24BFA3EB33
:1028A800510340EA5C00B3EB910F24BFA3EB910303
:1028B80040EA9C00B3EBD10F24BFA3EBD10340EA5D
:1028C800DC001B0118BF5FEA1C1CE0D1FD2A3FF6A3
:1028D80050AF8B4240EBC25008BF20F00100704758
:1028E8000CF0004C4CEA50207F32C2BFD2F1FF03FB
:1028F80040EAC250704740F400004FF00003013A2C
:1029080037E792F0000F00F0004C02BF400010F4CF
:10291800000F013AF9D040EA0C0093F0000F01F0E3
:10292800004C02BF490011F4000F013BF9D041EA05
:102938000C0195E70CEAD15392EA0C0F08D1420238
:102948007FF47DAF93EA0C0F7FF470AF084676E70B
:1029580093EA0C0F04D14B023FF44CAF08466EE7E4
:1029680030F0004C18BF31F0004CCAD130F00042B2
:102978007FF45CAF31F000437FF43CAF5FE700BF0A
:102988004FF0FF3C06E000BF4FF0010C02E000BF33
:102998004FF0010C4DF804CD4FEA40024FEA4103D5
:1029A8007FEA226C18BF7FEA236C11D001B052EA8B
:1029B800530C18BF90EA010F58BFB2EB030088BF51
:1029C800C81738BF6FEAE17018BF40F001007047C0
:1029D8007FEA226C02D15FEA402C05D17FEA236CA2
:1029E800E4D15FEA412CE1D05DF8040B704700BFE9
:1029F800844608466146FFE70FB5FFF7C9FF002880
:102A080048BF10F1000F0FBD4DF808EDFFF7F4FFB8
:102A18000CBF012000205DF808FB00BF4DF808ED51
:102A2800FFF7EAFF34BF012000205DF808FB00BF74
:102A38004DF808EDFFF7E0FF94BF012000205DF896
:102A480008FB00BF4DF808EDFFF7D2FF94BF012047
:102A580000205DF808FB00BF4DF808EDFFF7C8FF40
:102A680034BF012000205DF808FB00BF42000ED2F1
:102A7800B2F1FE4F0BD34FF09E03B3EB126209D4B1
:102A88004FEA002343F0004323FA02F070474FF067
:102A98000000704712F1610F01D1420202D14FF0DC
:102AA800FF3070474FF00000704700BF014B1868B7
:102AB800704700BF2400002030B5141E05469BB0A7
:102AC800184605DA8B234FF0FF302B601BB030BD62
:102AD8004FF40273ADF80C300CBF234604F1FF33FA
:102AE800029305934FF6FF7300910491ADF80E30F1
:102AF80002461E9B6946284600F072F8431CBCBF7C
:102B08008B232B60002CE1D00022009B1A70DDE79C
:102B180007B5009313460A46014603480068FFF7C5
:102B2800CBFF03B05DF804FB240000202DE9F0473B
:102B38008E6882469E420C469046994637D88A89C6
:102B480012F4906F31D00223256809696F1A6569FC
:102B580005EB450595FBF3F509F101033B449D425F
:102B680038BF1D46530530D5294600F035FB0646CB
:102B780050B90C234FF0FF30CAF80030A38943F056
:102B88004003A381BDE8F0873A46216900F0B4FA12
:102B9800A38923F4906343F08003A38126613E4414
:102BA80026604E466561ED1BA5604E4500D94E4630
:102BB80032464146206800F0AAFAA36800209B1B11
:102BC800A36023681E442660DCE72A4600F05EFB0B
:102BD80006460028E2D12169504600F0B1FAC8E75C
:102BE8002DE9F04F9DB003938B8980461D060C4656
:102BF80016460FD50B696BB9402100F0EDFA20603D
:102C0800206128B90C23C8F800304FF0FF30C7E026
:102C1800402363610023099320238DF82930302352
:102C28004FF0010B8DF82A3037463D4615F8013B29
:102C38000BB1252B3ED1B7EB060A0BD053463246D3
:102C480021464046FFF772FF013000F0A480099B3F
:102C5800534409933B78002B00F09D8000234FF0EC
:102C6800FF32CDE90523049307938DF853301A9367
:102C78002F46052217F8011B4F4800F02FFA049B36
:102C8800D0B9D90644BF20228DF853201A0744BF73
:102C98002B228DF853202A782A2A15D02F46002077
:102CA8000A25079A394611F8013B303B092B4DD9C3
:102CB800B8B10FE02F46B8E73F4A3D46801A0BFAF5
:102CC80000F018430490D3E7039A111D126803918A
:102CD800002A01DB079204E0524243F00203079204
:102CE80004933B782E2B0CD17B782A2B33D1039B72
:102CF80002371A1D1B680392002BB8BF4FF0FF3331
:102D080005932E4D03223978284600F0E7F938B1AB
:102D18004023401B03FA00F0049B0137034304934C
:102D28003978062226487E1C8DF8281000F0D6F93E
:102D3800002838D0234B13BB039B073323F007032A
:102D480008330393099B4B4409936DE705FB023253
:102D580001200F46A6E700230A25194601370593E7
:102D6800384610F8012B303A092A03D9002BC8D06D
:102D78000591C6E705FB012101230746F0E703ABF0
:102D880000932246104B04A94046AFF30080B0F1EF
:102D9800FF3F8146D6D1A3895B063FF536AF099838
:102DA8001DB0BDE8F08F03AB00932246064B04A983
:102DB800404600F081F8EAE7BC370008C23700084F
:102DC800C637000800000000352B00082DE9F04741
:102DD80091461F468A680B6906469342B8BF134658
:102DE800C9F8003091F843200C46DDF8208012B174
:102DF8000133C9F800302368990642BFD9F800307A
:102E08000233C9F80030256815F0060507D104F12A
:102E1800190AE368D9F800209B1AAB4229DC94F818
:102E280043302268003318BF012392062ED404F1E0
:102E3800430239463046C047013021D02368E5684F
:102E480003F00603042B18BF0025D9F800204FF023
:102E5800000908BFAD1AA368226908BF25EAE5750D
:102E68009342C4BF9B1AED181A344D451AD100205D
:102E780008E00123524639463046C047013003D1A5
:102E88004FF0FF30BDE8F0870135C2E73020E11888
:102E980081F843005A1C94F845102244023382F802
:102EA8004310C4E70123224639463046C047013063
:102EB800E6D009F10109D8E72DE9F04301F1430C07
:102EC8000C46097E85B06E291746064698460C9A28
:102ED80000F0B38022D8632936D00AD8002900F040
:102EE800B980582900F0838004F1420584F8421023
:102EF80032E0642901D06929F6D1206813680506F3
:102F080003F104012AD51B681160002B03DA2D2276
:102F18005B4284F843206F480A2239E0732900F0A5
:102F28009D8008D86F2920D07029DDD1236843F00F
:102F38002003236003E0752917D07829D4D178239A
:102F4800654884F8453055E0136804F14205191DB9
:102F58001B68116084F8423001238CE01B6810F074
:102F6800400F116018BF1BB2CFE713682568181D02
:102F78001060280601D51B6802E06806FBD51B888F
:102F88006F2914BF0A2208225248002184F84310EE
:102F98006568002DA560C0F29580216821F00401C4
:102FA8002160002B3DD1002D40F08E806546082A17
:102FB8000BD12368DB0708D5236962689A42DEBF14
:102FC800302305F8013C05F1FF35ACEB050323611F
:102FD800CDF800803B4603AA21463046FFF7F6FEAF
:102FE80001304DD14FF0FF3005B0BDE8F0833948CE
:102FF80084F84510136821681D1D1B6815600A06B2
:103008000BD5CA0744BF41F0200121601BB92268D3
:1030180022F0200222601022B7E74D0648BF9BB27B
:10302800EFE76546B3FBF2F102FB1133C35C05F829
:10303800013D0B460029F5D1B9E713682568181D2D
:103048006169106028061B6801D5196002E06A06EC
:10305800FBD51980002365462361B9E71368191D5C
:1030680011601D6862680021284600F037F808B131
:10307800401B606063682361002384F84330A7E73E
:1030880023692A4639463046C0470130AAD023680A
:103098009B0713D4E068039B9842B8BF1846A3E780
:1030A80001234A4639463046C04701309AD0013597
:1030B800E368039A9B1AAB42F2DCEBE7002504F1C4
:1030C8001909F5E7002BACD1037804F1420584F81F
:1030D80042306CE7CD370008DE37000810B5C9B2BA
:1030E80002449042034601D1002303E01C780130DA
:1030F8008C42F6D1184610BD10B5431E0A449142C1
:1031080000D110BD11F8014B03F8014FF7E78842D1
:1031180010B501EB020307D8421E99420AD011F8F4
:10312800014B02F8014FF8E78342F5D98118D21A0A
:10313800D34200D110BD13F8014D01F8014DF7E756
:1031480038B50546002943D051F8043C0C1F002B24
:10315800B8BFE41800F0D0F81E4A1368104633B917
:10316800636014602846BDE8384000F0C6B8A34242
:103178000BD921686218934201BF1A685B6852181C
:10318800226063600460EDE713465A680AB1A24200
:10319800FAD919685818A0420BD120680144581868
:1031A80082421960DED110685268014419605A6081
:1031B800D8E702D90C232B60D4E7206821188A426B
:1031C80001BF116852680918216062605C60C9E734
:1031D80038BD00BF4001002070B5CD1C25F00305A7
:1031E80008350C2D38BF0C25002D064601DBA942F9
:1031F80003D90C233360002070BD00F07DF8214A0C
:103208001468214691B9204C23681BB9304600F058
:1032180063F820602946304600F05EF8431C24D14C
:103228000C233046336000F068F8E4E70B685B1B5A
:1032380018D40B2B0FD90B60CC18CD50304600F0AA
:103248005CF804F10B00231D20F00700C31AD3D04B
:103258005A42E250D0E74B688C4216BF6360136055
:103268000C46EBE70C464968CCE7C41C24F0030481
:10327800A04205D0211A304600F02EF80130CFD0F8
:103288002560DBE74001002044010020F8B507462F
:1032980014460E4621B9BDE8F8401146FFF79CBF19
:1032A80022B9FFF74DFF25462846F8BD00F026F85D
:1032B800A0420FD221463846FFF78EFF0546002868
:1032C800F2D031462246FFF717FF31463846FFF75E
:1032D80037FFE9E73546E7E738B50023054C0546EB
:1032E80008462360FDF746F8431C02D1236803B162
:1032F8002B6038BD480100207047704751F8043CE6
:10330800181F002BBCBF0B58C0187047537461635B
:103318006B206672616D653A0A0000002052302009
:103328003D2020253038580A000000002052312066
:103338003D2020253038580A000000002052322055
:103348003D2020253038580A000000002052332044
:103358003D2020253038580A000000002052313224
:10336800203D20253038580A00000000204C52200B
:103378003D2020253038580A000000002050432006
:103388003D2020253038580A0000000020505352B4
:10339800203D20253038580A000000004653522F9F
:1033A8004641523A0A0000002043465352203D202D
:1033B80020253038580A00002048465352203D2026
:1033C80020253038580A00002044465352203D201A
:1033D80020253038580A00002041465352203D200D
:1033E80020253038580A0000204D4D464152203DD6
:1033F80020253038580A00002042464152203D20FE
:1034080020253038580A00004D6973630A0000000F
:10341800204C522F4558435F52455455524E3D203B
:10342800253038580A0000005B48617264466175AF
:103438006C745D0A000000005B4275734661756C30
:10344800745D0A005B55736167654661756C745DF0
:103458000A00000047455420687474703A2F2F659D
:10346800667261696D796F75736566332E6672650C
:10347800657661722E636F6D2F00000041542B43F7
:10348800495053454E443D0041542B4349505354F1
:103498004152543D22544350222C2200222C000039
:1034A80041542B43574A41503D220000220D0A0047
:1034B80041540D0A0000000041542B43574D4F441E
:1034C800453D310D0A00000041542B4349465352F3
:1034D8000D0A000041542B4349504D55583D300DBD
:1034E8000A000000474554202F7570646174653FD9
:1034F8006170695F6B65793D4634454A35305A5984
:103508004A4E554143413858266669656C64333DD7
:10351800000000000D0A0D0A0D0A0D0A0000000047
:103528002A0023440708094304050642010203410F
:103538000001050B0C0D0E0A000000000000005FE2
:1035480000000007000700147F147F14242A7F2A34
:1035580012231308646236495522500005030000FF
:10356800001C2241000041221C0014083E081408D7
:10357800083E0808005030000008080808080060E5
:1035880060000020100804023E5149453E00427F79
:10359800400042615149462141454B311814127F80
:1035A8001027454545393C4A494930017109050309
:1035B8003649494936064949291E00363600000071
:1035C8005636000008142241001414141414004143
:1035D8002214080201510906324979413E7E11112F
:1035E800117E7F494949363E414141227F4141226E
:1035F8001C7F494949417F090909013E4149497AE6
:103608007F0808087F00417F41002040413F017F3B
:10361800081422417F404040407F020C027F7F0413
:1036280008107F3E4141413E7F090909063E41514C
:10363800215E7F09192946464949493101017F011F
:10364800013F4040403F1F2040201F3F4038403F3F
:10365800631408146307087008076151494543005B
:103668007F41410002040810200041417F0004020C
:10367800010204404040404000010204002054542C
:1036880054787F48444438384444442038444448B3
:103698007F3854545418087E0901020C5252523E85
:1036A8007F0804047800447D40002040443D007FAA
:1036B8001028440000417F40007C041804787C08EE
:1036C80004047838444444387C1414140808141446
:1036D800187C7C080404084854545420043F44408F
:1036E800203C4040207C1C2040201C3C4030403C7A
:1036F80044281028440C5050503C4464544C440016
:103708000836410000007F0000004136080010081C
:103718000810087846414678616B6E65393537334D
:1037280000000000416E64726F696441500000003F
:10373800383000006170692E7468696E677370654F
:10374800616B2E636F6D000035330000310000009F
:103758003136322E3235332E3135352E323236006F
:10376800343900005F5F646F6F722E7478740000E4
:1037780077656C636F6D65004164656C2063616E8D
:1037880000000000796F7520656E74657200000096
:1037980070617373203A00004F5053532121000089
:1037A80069742773206F70656E0000006C6F636B1F
:1037B80000000000232D302B2000686C4C0065664B
:1037C800674546470030313233343536373839416A
:1037D8004243444546003031323334353637383980
:0737E8006162636465660085
:1037F0007856341294000020000000000000000001
:1038000000000000010203040607080900A24A04A0
:1038100001FFFFFF28000020000000000000000062
:103820000000000000000000000000000000000098
:103830000000000000000000000000000000000088
:103840000000000000000000000000000000000078
:103850000000000000000000000000000000000068
:103860000000000000000000000000000000000058
:0C387000000000000000000032547698B8
:040000050800010DE1
:00000001FF
